{
  "_format": "hh-sol-artifact-1",
  "contractName": "ConfidentialVault",
  "sourceName": "contracts/ConfidentialVault.sol",
  "abi": [
    {
      "inputs": [
        {
          "internalType": "address",
          "name": "_sendVerifier",
          "type": "address"
        },
        {
          "internalType": "address",
          "name": "_receiveVerifier",
          "type": "address"
        },
        {
          "internalType": "address",
          "name": "_signatureVerifier",
          "type": "address"
        },
        {
          "internalType": "address",
          "name": "_accessControl",
          "type": "address"
        },
        {
          "internalType": "address",
          "name": "_group",
          "type": "address"
        }
      ],
      "stateMutability": "nonpayable",
      "type": "constructor"
    },
    {
      "inputs": [
        {
          "internalType": "address",
          "name": "caller",
          "type": "address"
        },
        {
          "internalType": "uint256",
          "name": "idHash",
          "type": "uint256"
        },
        {
          "internalType": "bytes",
          "name": "proof",
          "type": "bytes"
        },
        {
          "internalType": "uint256[3]",
          "name": "input",
          "type": "uint256[3]"
        }
      ],
      "name": "acceptRequestMeta",
      "outputs": [],
      "stateMutability": "nonpayable",
      "type": "function"
    },
    {
      "inputs": [
        {
          "internalType": "address",
          "name": "caller",
          "type": "address"
        },
        {
          "internalType": "uint256",
          "name": "group_id",
          "type": "uint256"
        },
        {
          "components": [
            {
              "internalType": "address",
              "name": "oracle_address",
              "type": "address"
            },
            {
              "internalType": "address",
              "name": "oracle_owner",
              "type": "address"
            },
            {
              "internalType": "uint256",
              "name": "oracle_key_sender",
              "type": "uint256"
            },
            {
              "internalType": "uint256",
              "name": "oracle_value_sender",
              "type": "uint256"
            },
            {
              "internalType": "uint256",
              "name": "oracle_key_recipient",
              "type": "uint256"
            },
            {
              "internalType": "uint256",
              "name": "oracle_value_recipient",
              "type": "uint256"
            },
            {
              "internalType": "uint32",
              "name": "unlock_sender",
              "type": "uint32"
            },
            {
              "internalType": "uint32",
              "name": "unlock_receiver",
              "type": "uint32"
            }
          ],
          "internalType": "struct CreateRequestMessage[]",
          "name": "cr",
          "type": "tuple[]"
        },
        {
          "components": [
            {
              "internalType": "bytes",
              "name": "proof",
              "type": "bytes"
            },
            {
              "internalType": "uint256[7]",
              "name": "input",
              "type": "uint256[7]"
            }
          ],
          "internalType": "struct SendProof",
          "name": "proof",
          "type": "tuple"
        },
        {
          "components": [
            {
              "internalType": "address",
              "name": "denomination",
              "type": "address"
            },
            {
              "internalType": "address",
              "name": "obligor",
              "type": "address"
            },
            {
              "internalType": "address",
              "name": "deal_address",
              "type": "address"
            },
            {
              "internalType": "uint256",
              "name": "deal_group_id",
              "type": "uint256"
            },
            {
              "internalType": "uint256",
              "name": "deal_id",
              "type": "uint256"
            }
          ],
          "internalType": "struct Payment",
          "name": "payment",
          "type": "tuple"
        },
        {
          "internalType": "bool",
          "name": "agree",
          "type": "bool"
        }
      ],
      "name": "createRequestMeta",
      "outputs": [],
      "stateMutability": "nonpayable",
      "type": "function"
    },
    {
      "inputs": [
        {
          "internalType": "address",
          "name": "caller",
          "type": "address"
        },
        {
          "internalType": "uint256",
          "name": "group_id",
          "type": "uint256"
        },
        {
          "internalType": "address",
          "name": "denomination",
          "type": "address"
        },
        {
          "internalType": "address",
          "name": "obligor",
          "type": "address"
        },
        {
          "internalType": "uint256",
          "name": "amount",
          "type": "uint256"
        },
        {
          "internalType": "bytes",
          "name": "proof",
          "type": "bytes"
        },
        {
          "internalType": "uint256[3]",
          "name": "input",
          "type": "uint256[3]"
        }
      ],
      "name": "depositMeta",
      "outputs": [],
      "stateMutability": "nonpayable",
      "type": "function"
    },
    {
      "inputs": [
        {
          "internalType": "address",
          "name": "account",
          "type": "address"
        },
        {
          "internalType": "uint256",
          "name": "groupId",
          "type": "uint256"
        }
      ],
      "name": "getNonce",
      "outputs": [
        {
          "internalType": "uint256",
          "name": "",
          "type": "uint256"
        }
      ],
      "stateMutability": "view",
      "type": "function"
    },
    {
      "inputs": [
        {
          "internalType": "address",
          "name": "account",
          "type": "address"
        },
        {
          "internalType": "uint256",
          "name": "groupId",
          "type": "uint256"
        },
        {
          "internalType": "uint256",
          "name": "dealId",
          "type": "uint256"
        },
        {
          "internalType": "bool",
          "name": "bySender",
          "type": "bool"
        }
      ],
      "name": "getSendRequestByAddress",
      "outputs": [
        {
          "components": [
            {
              "internalType": "uint256",
              "name": "idHash",
              "type": "uint256"
            },
            {
              "internalType": "address",
              "name": "sender",
              "type": "address"
            },
            {
              "internalType": "uint256",
              "name": "group_id",
              "type": "uint256"
            },
            {
              "internalType": "address",
              "name": "denomination",
              "type": "address"
            },
            {
              "internalType": "address",
              "name": "obligor",
              "type": "address"
            },
            {
              "internalType": "uint256",
              "name": "amount_hash",
              "type": "uint256"
            },
            {
              "internalType": "uint32",
              "name": "created",
              "type": "uint32"
            },
            {
              "internalType": "uint32",
              "name": "redeemed",
              "type": "uint32"
            },
            {
              "internalType": "bool",
              "name": "active",
              "type": "bool"
            },
            {
              "internalType": "address",
              "name": "deal_address",
              "type": "address"
            },
            {
              "internalType": "uint256",
              "name": "deal_group_id",
              "type": "uint256"
            },
            {
              "internalType": "uint256",
              "name": "deal_id",
              "type": "uint256"
            },
            {
              "internalType": "address",
              "name": "oracle_address",
              "type": "address"
            },
            {
              "internalType": "address",
              "name": "oracle_owner",
              "type": "address"
            },
            {
              "internalType": "uint256",
              "name": "oracle_key_sender",
              "type": "uint256"
            },
            {
              "internalType": "uint256",
              "name": "oracle_value_sender",
              "type": "uint256"
            },
            {
              "internalType": "uint256",
              "name": "oracle_key_recipient",
              "type": "uint256"
            },
            {
              "internalType": "uint256",
              "name": "oracle_value_recipient",
              "type": "uint256"
            },
            {
              "internalType": "uint32",
              "name": "unlock_sender",
              "type": "uint32"
            },
            {
              "internalType": "uint32",
              "name": "unlock_receiver",
              "type": "uint32"
            }
          ],
          "internalType": "struct SendRequest[]",
          "name": "",
          "type": "tuple[]"
        }
      ],
      "stateMutability": "view",
      "type": "function"
    },
    {
      "inputs": [
        {
          "internalType": "uint256",
          "name": "idHash",
          "type": "uint256"
        }
      ],
      "name": "getSendRequestByID",
      "outputs": [
        {
          "components": [
            {
              "internalType": "uint256",
              "name": "idHash",
              "type": "uint256"
            },
            {
              "internalType": "address",
              "name": "sender",
              "type": "address"
            },
            {
              "internalType": "uint256",
              "name": "group_id",
              "type": "uint256"
            },
            {
              "internalType": "address",
              "name": "denomination",
              "type": "address"
            },
            {
              "internalType": "address",
              "name": "obligor",
              "type": "address"
            },
            {
              "internalType": "uint256",
              "name": "amount_hash",
              "type": "uint256"
            },
            {
              "internalType": "uint32",
              "name": "created",
              "type": "uint32"
            },
            {
              "internalType": "uint32",
              "name": "redeemed",
              "type": "uint32"
            },
            {
              "internalType": "bool",
              "name": "active",
              "type": "bool"
            },
            {
              "internalType": "address",
              "name": "deal_address",
              "type": "address"
            },
            {
              "internalType": "uint256",
              "name": "deal_group_id",
              "type": "uint256"
            },
            {
              "internalType": "uint256",
              "name": "deal_id",
              "type": "uint256"
            },
            {
              "internalType": "address",
              "name": "oracle_address",
              "type": "address"
            },
            {
              "internalType": "address",
              "name": "oracle_owner",
              "type": "address"
            },
            {
              "internalType": "uint256",
              "name": "oracle_key_sender",
              "type": "uint256"
            },
            {
              "internalType": "uint256",
              "name": "oracle_value_sender",
              "type": "uint256"
            },
            {
              "internalType": "uint256",
              "name": "oracle_key_recipient",
              "type": "uint256"
            },
            {
              "internalType": "uint256",
              "name": "oracle_value_recipient",
              "type": "uint256"
            },
            {
              "internalType": "uint32",
              "name": "unlock_sender",
              "type": "uint32"
            },
            {
              "internalType": "uint32",
              "name": "unlock_receiver",
              "type": "uint32"
            }
          ],
          "internalType": "struct SendRequest",
          "name": "",
          "type": "tuple"
        }
      ],
      "stateMutability": "view",
      "type": "function"
    },
    {
      "inputs": [
        {
          "internalType": "address",
          "name": "caller",
          "type": "address"
        },
        {
          "internalType": "uint256",
          "name": "group_id",
          "type": "uint256"
        },
        {
          "internalType": "address",
          "name": "denomination",
          "type": "address"
        },
        {
          "internalType": "address",
          "name": "obligor",
          "type": "address"
        },
        {
          "internalType": "uint256",
          "name": "amount",
          "type": "uint256"
        },
        {
          "internalType": "bytes",
          "name": "proof",
          "type": "bytes"
        },
        {
          "internalType": "uint256[7]",
          "name": "input",
          "type": "uint256[7]"
        }
      ],
      "name": "withdrawMeta",
      "outputs": [],
      "stateMutability": "nonpayable",
      "type": "function"
    }
  ],
  "bytecode": "0x60806040523480156200001157600080fd5b506040516200627a3803806200627a8339818101604052810190620000379190620001f0565b846000806101000a81548173ffffffffffffffffffffffffffffffffffffffff021916908373ffffffffffffffffffffffffffffffffffffffff16021790555083600160006101000a81548173ffffffffffffffffffffffffffffffffffffffff021916908373ffffffffffffffffffffffffffffffffffffffff16021790555082600260006101000a81548173ffffffffffffffffffffffffffffffffffffffff021916908373ffffffffffffffffffffffffffffffffffffffff16021790555081600960006101000a81548173ffffffffffffffffffffffffffffffffffffffff021916908373ffffffffffffffffffffffffffffffffffffffff16021790555080600a60006101000a81548173ffffffffffffffffffffffffffffffffffffffff021916908373ffffffffffffffffffffffffffffffffffffffff160217905550505050505062000278565b600080fd5b600073ffffffffffffffffffffffffffffffffffffffff82169050919050565b6000620001b8826200018b565b9050919050565b620001ca81620001ab565b8114620001d657600080fd5b50565b600081519050620001ea81620001bf565b92915050565b600080600080600060a086880312156200020f576200020e62000186565b5b60006200021f88828901620001d9565b95505060206200023288828901620001d9565b94505060406200024588828901620001d9565b93505060606200025888828901620001d9565b92505060806200026b88828901620001d9565b9150509295509295909350565b615ff280620002886000396000f3fe608060405234801561001057600080fd5b506004361061007d5760003560e01c8063b172dd691161005b578063b172dd69146100ea578063b492a8ea14610106578063d1c968e414610136578063d7d997ab146101525761007d565b80632ae781b014610082578063895358031461009e5780639346eb3e146100ce575b600080fd5b61009c600480360381019061009791906141aa565b610182565b005b6100b860048036038101906100b39190614232565b611587565b6040516100c59190614281565b60405180910390f35b6100e860048036038101906100e39190614708565b6115e2565b005b61010460048036038101906100ff91906147cf565b612562565b005b610120600480360381019061011b9190614892565b612cc2565b60405161012d9190614a99565b60405180910390f35b610150600480360381019061014b9190614ab5565b613001565b005b61016c60048036038101906101679190614b78565b6138a3565b6040516101799190614e2d565b60405180910390f35b60003373ffffffffffffffffffffffffffffffffffffffff16600960009054906101000a900473ffffffffffffffffffffffffffffffffffffffff1673ffffffffffffffffffffffffffffffffffffffff16146101df57336101e1565b855b9050600160009054906101000a900473ffffffffffffffffffffffffffffffffffffffff1673ffffffffffffffffffffffffffffffffffffffff16633bd3ada88585856040518463ffffffff1660e01b815260040161024293929190614f29565b60006040518083038186803b15801561025a57600080fd5b505afa15801561026e573d6000803e3d6000fd5b5050505060006008600087815260200190815260200160002060405180610280016040529081600082015481526020016001820160009054906101000a900473ffffffffffffffffffffffffffffffffffffffff1673ffffffffffffffffffffffffffffffffffffffff1673ffffffffffffffffffffffffffffffffffffffff168152602001600282015481526020016003820160009054906101000a900473ffffffffffffffffffffffffffffffffffffffff1673ffffffffffffffffffffffffffffffffffffffff1673ffffffffffffffffffffffffffffffffffffffff1681526020016004820160009054906101000a900473ffffffffffffffffffffffffffffffffffffffff1673ffffffffffffffffffffffffffffffffffffffff1673ffffffffffffffffffffffffffffffffffffffff168152602001600582015481526020016006820160009054906101000a900463ffffffff1663ffffffff1663ffffffff1681526020016006820160049054906101000a900463ffffffff1663ffffffff1663ffffffff1681526020016006820160089054906101000a900460ff161515151581526020016006820160099054906101000a900473ffffffffffffffffffffffffffffffffffffffff1673ffffffffffffffffffffffffffffffffffffffff1673ffffffffffffffffffffffffffffffffffffffff16815260200160078201548152602001600882015481526020016009820160009054906101000a900473ffffffffffffffffffffffffffffffffffffffff1673ffffffffffffffffffffffffffffffffffffffff1673ffffffffffffffffffffffffffffffffffffffff168152602001600a820160009054906101000a900473ffffffffffffffffffffffffffffffffffffffff1673ffffffffffffffffffffffffffffffffffffffff1673ffffffffffffffffffffffffffffffffffffffff168152602001600b8201548152602001600c8201548152602001600d8201548152602001600e8201548152602001600f820160009054906101000a900463ffffffff1663ffffffff1663ffffffff168152602001600f820160049054906101000a900463ffffffff1663ffffffff1663ffffffff1681525050905060008160a0015190506000826060015190506000836101600151905060008461014001511115610661573373ffffffffffffffffffffffffffffffffffffffff16600a60009054906101000a900473ffffffffffffffffffffffffffffffffffffffff1673ffffffffffffffffffffffffffffffffffffffff1614610660576040517f08c379a000000000000000000000000000000000000000000000000000000000815260040161065790614fb8565b60405180910390fd5b5b60008573ffffffffffffffffffffffffffffffffffffffff16856020015173ffffffffffffffffffffffffffffffffffffffff161461073257600082036106ad5784610120015161072d565b84610120015173ffffffffffffffffffffffffffffffffffffffff16636352211e836040518263ffffffff1660e01b81526004016106eb9190614281565b602060405180830381865afa158015610708573d6000803e3d6000fd5b505050506040513d601f19601f8201168201806040525081019061072c9190614fed565b5b610734565b855b905084610100015161077b576040517f08c379a000000000000000000000000000000000000000000000000000000000815260040161077290615066565b60405180910390fd5b6000600360008373ffffffffffffffffffffffffffffffffffffffff1673ffffffffffffffffffffffffffffffffffffffff1681526020019081526020016000206000876101400151815260200190815260200160002060008573ffffffffffffffffffffffffffffffffffffffff1673ffffffffffffffffffffffffffffffffffffffff1681526020019081526020016000206000876080015173ffffffffffffffffffffffffffffffffffffffff1673ffffffffffffffffffffffffffffffffffffffff1681526020019081526020016000205414610949578660006003811061086a57610869615086565b5b6020020151600360008373ffffffffffffffffffffffffffffffffffffffff1673ffffffffffffffffffffffffffffffffffffffff1681526020019081526020016000206000876101400151815260200190815260200160002060008573ffffffffffffffffffffffffffffffffffffffff1673ffffffffffffffffffffffffffffffffffffffff1681526020019081526020016000206000876080015173ffffffffffffffffffffffffffffffffffffffff1673ffffffffffffffffffffffffffffffffffffffff168152602001908152602001600020541461097d565b8660016003811061095d5761095c615086565b5b60200201518760026003811061097657610975615086565b5b6020020151145b6109bc576040517f08c379a00000000000000000000000000000000000000000000000000000000081526004016109b390615101565b60405180910390fd5b866002600381106109d0576109cf615086565b5b60200201518414610a16576040517f08c379a0000000000000000000000000000000000000000000000000000000008152600401610a0d9061516d565b60405180910390fd5b60008203610ae9578573ffffffffffffffffffffffffffffffffffffffff1685610120015173ffffffffffffffffffffffffffffffffffffffff161480610a8c57508573ffffffffffffffffffffffffffffffffffffffff16856020015173ffffffffffffffffffffffffffffffffffffffff16145b80610ae457508573ffffffffffffffffffffffffffffffffffffffff16600a60009054906101000a900473ffffffffffffffffffffffffffffffffffffffff1673ffffffffffffffffffffffffffffffffffffffff16145b610c29565b8573ffffffffffffffffffffffffffffffffffffffff1685610120015173ffffffffffffffffffffffffffffffffffffffff16636352211e846040518263ffffffff1660e01b8152600401610b3e9190614281565b602060405180830381865afa158015610b5b573d6000803e3d6000fd5b505050506040513d601f19601f82011682018060405250810190610b7f9190614fed565b73ffffffffffffffffffffffffffffffffffffffff161480610bd057508573ffffffffffffffffffffffffffffffffffffffff16856020015173ffffffffffffffffffffffffffffffffffffffff16145b80610c2857508573ffffffffffffffffffffffffffffffffffffffff16600a60009054906101000a900473ffffffffffffffffffffffffffffffffffffffff1673ffffffffffffffffffffffffffffffffffffffff16145b5b610c68576040517f08c379a0000000000000000000000000000000000000000000000000000000008152600401610c5f906151d9565b60405180910390fd5b846020015173ffffffffffffffffffffffffffffffffffffffff168673ffffffffffffffffffffffffffffffffffffffff1603610e02574285610240015163ffffffff1610610cec576040517f08c379a0000000000000000000000000000000000000000000000000000000008152600401610ce39061526b565b60405180910390fd5b600073ffffffffffffffffffffffffffffffffffffffff1685610180015173ffffffffffffffffffffffffffffffffffffffff1614610dfd57600085610180015173ffffffffffffffffffffffffffffffffffffffff1663c7bf8cf5876101a00151886101c001516040518363ffffffff1660e01b8152600401610d7192919061529a565b602060405180830381865afa158015610d8e573d6000803e3d6000fd5b505050506040513d601f19601f82011682018060405250810190610db291906152d8565b905080866101e0015114610dfb576040517f08c379a0000000000000000000000000000000000000000000000000000000008152600401610df290615351565b60405180910390fd5b505b611045565b4285610260015163ffffffff1610610e4f576040517f08c379a0000000000000000000000000000000000000000000000000000000008152600401610e46906153e3565b60405180910390fd5b60008561016001511115610f3357600085610120015173ffffffffffffffffffffffffffffffffffffffff1663e172007c8761016001516040518263ffffffff1660e01b8152600401610ea29190614281565b600060405180830381865afa158015610ebf573d6000803e3d6000fd5b505050506040513d6000823e3d601f19601f82011682018060405250810190610ee891906155c9565b60c0015163ffffffff1611610f32576040517f08c379a0000000000000000000000000000000000000000000000000000000008152600401610f299061565e565b60405180910390fd5b5b600073ffffffffffffffffffffffffffffffffffffffff1685610180015173ffffffffffffffffffffffffffffffffffffffff161461104457600085610180015173ffffffffffffffffffffffffffffffffffffffff1663c7bf8cf5876101a001518861020001516040518363ffffffff1660e01b8152600401610fb892919061529a565b602060405180830381865afa158015610fd5573d6000803e3d6000fd5b505050506040513d601f19601f82011682018060405250810190610ff991906152d8565b90508086610220015114611042576040517f08c379a0000000000000000000000000000000000000000000000000000000008152600401611039906156f0565b60405180910390fd5b505b5b6040518061028001604052808b8152602001866020015173ffffffffffffffffffffffffffffffffffffffff168152602001866040015181526020018473ffffffffffffffffffffffffffffffffffffffff168152602001866080015173ffffffffffffffffffffffffffffffffffffffff1681526020018581526020018660c0015163ffffffff1681526020014263ffffffff16815260200160001515815260200186610120015173ffffffffffffffffffffffffffffffffffffffff168152602001866101400151815260200183815260200186610180015173ffffffffffffffffffffffffffffffffffffffff168152602001866101a0015173ffffffffffffffffffffffffffffffffffffffff168152602001866101c001518152602001866101e0015181526020018661020001518152602001866102200151815260200186610240015163ffffffff16815260200186610260015163ffffffff16815250600860008c81526020019081526020016000206000820151816000015560208201518160010160006101000a81548173ffffffffffffffffffffffffffffffffffffffff021916908373ffffffffffffffffffffffffffffffffffffffff1602179055506040820151816002015560608201518160030160006101000a81548173ffffffffffffffffffffffffffffffffffffffff021916908373ffffffffffffffffffffffffffffffffffffffff16021790555060808201518160040160006101000a81548173ffffffffffffffffffffffffffffffffffffffff021916908373ffffffffffffffffffffffffffffffffffffffff16021790555060a0820151816005015560c08201518160060160006101000a81548163ffffffff021916908363ffffffff16021790555060e08201518160060160046101000a81548163ffffffff021916908363ffffffff1602179055506101008201518160060160086101000a81548160ff0219169083151502179055506101208201518160060160096101000a81548173ffffffffffffffffffffffffffffffffffffffff021916908373ffffffffffffffffffffffffffffffffffffffff160217905550610140820151816007015561016082015181600801556101808201518160090160006101000a81548173ffffffffffffffffffffffffffffffffffffffff021916908373ffffffffffffffffffffffffffffffffffffffff1602179055506101a082015181600a0160006101000a81548173ffffffffffffffffffffffffffffffffffffffff021916908373ffffffffffffffffffffffffffffffffffffffff1602179055506101c082015181600b01556101e082015181600c015561020082015181600d015561022082015181600e015561024082015181600f0160006101000a81548163ffffffff021916908363ffffffff16021790555061026082015181600f0160046101000a81548163ffffffff021916908363ffffffff1602179055509050508660016003811061149e5761149d615086565b5b6020020151600360008373ffffffffffffffffffffffffffffffffffffffff1673ffffffffffffffffffffffffffffffffffffffff1681526020019081526020016000206000876101400151815260200190815260200160002060008573ffffffffffffffffffffffffffffffffffffffff1673ffffffffffffffffffffffffffffffffffffffff1681526020019081526020016000206000876080015173ffffffffffffffffffffffffffffffffffffffff1673ffffffffffffffffffffffffffffffffffffffff168152602001908152602001600020819055505050505050505050505050565b6000600460008473ffffffffffffffffffffffffffffffffffffffff1673ffffffffffffffffffffffffffffffffffffffff168152602001908152602001600020600083815260200190815260200160002054905092915050565b60003373ffffffffffffffffffffffffffffffffffffffff16600960009054906101000a900473ffffffffffffffffffffffffffffffffffffffff1673ffffffffffffffffffffffffffffffffffffffff161461163f5733611641565b865b905060008611156116e0573373ffffffffffffffffffffffffffffffffffffffff16600a60009054906101000a900473ffffffffffffffffffffffffffffffffffffffff1673ffffffffffffffffffffffffffffffffffffffff16146116dc576040517f08c379a00000000000000000000000000000000000000000000000000000000081526004016116d390614fb8565b60405180910390fd5b8690505b600083608001519050600084600001519050600460008473ffffffffffffffffffffffffffffffffffffffff1673ffffffffffffffffffffffffffffffffffffffff168152602001908152602001600020600089815260200190815260200160002054866020015160036007811061175b5761175a615086565b5b6020020151148015611856575085602001516000600781106117805761177f615086565b5b6020020151600360008573ffffffffffffffffffffffffffffffffffffffff1673ffffffffffffffffffffffffffffffffffffffff16815260200190815260200160002060008a815260200190815260200160002060008373ffffffffffffffffffffffffffffffffffffffff1673ffffffffffffffffffffffffffffffffffffffff1681526020019081526020016000206000876020015173ffffffffffffffffffffffffffffffffffffffff1673ffffffffffffffffffffffffffffffffffffffff16815260200190815260200160002054145b80156119035750856020015160066007811061187557611874615086565b5b602002015173__$dd8f70da0dc5250aadfe160dc97f00f11f$__639d036e7160405180602001604052808b518152506040518263ffffffff1660e01b81526004016118c091906157bb565b602060405180830381865af41580156118dd573d6000803e3d6000fd5b505050506040513d601f19601f8201168201806040525081019061190191906152d8565b145b8015611910575060008214155b61191b5760016119ab565b42856040015173ffffffffffffffffffffffffffffffffffffffff1663e172007c846040518263ffffffff1660e01b81526004016119599190614281565b600060405180830381865afa158015611976573d6000803e3d6000fd5b505050506040513d6000823e3d601f19601f8201168201806040525081019061199f91906155c9565b60e0015163ffffffff16115b6119ea576040517f08c379a00000000000000000000000000000000000000000000000000000000081526004016119e190615822565b60405180910390fd5b6000600460008573ffffffffffffffffffffffffffffffffffffffff1673ffffffffffffffffffffffffffffffffffffffff16815260200190815260200160002060008a815260200190815260200160002054905060005b88518110156122a557600060405180604001604052808a60200151600460078110611a7057611a6f615086565b5b6020020151815260200183815250604051602001611a8e91906158ed565b6040516020818303038152906040528051906020012060001c90506040518061028001604052808281526020018773ffffffffffffffffffffffffffffffffffffffff1681526020018c81526020018573ffffffffffffffffffffffffffffffffffffffff168152602001896020015173ffffffffffffffffffffffffffffffffffffffff1681526020018a60200151600260078110611b3157611b30615086565b5b602002015181526020014263ffffffff168152602001600063ffffffff168152602001600115158152602001896040015173ffffffffffffffffffffffffffffffffffffffff168152602001896060015181526020018681526020018b8481518110611ba057611b9f615086565b5b60200260200101516000015173ffffffffffffffffffffffffffffffffffffffff1681526020018b8481518110611bda57611bd9615086565b5b60200260200101516020015173ffffffffffffffffffffffffffffffffffffffff1681526020018b8481518110611c1457611c13615086565b5b60200260200101516040015181526020018b8481518110611c3857611c37615086565b5b60200260200101516060015181526020018b8481518110611c5c57611c5b615086565b5b60200260200101516080015181526020018b8481518110611c8057611c7f615086565b5b602002602001015160a0015181526020018b8481518110611ca457611ca3615086565b5b602002602001015160c0015163ffffffff1681526020018b8481518110611cce57611ccd615086565b5b602002602001015160e0015163ffffffff16815250600860008381526020019081526020016000206000820151816000015560208201518160010160006101000a81548173ffffffffffffffffffffffffffffffffffffffff021916908373ffffffffffffffffffffffffffffffffffffffff1602179055506040820151816002015560608201518160030160006101000a81548173ffffffffffffffffffffffffffffffffffffffff021916908373ffffffffffffffffffffffffffffffffffffffff16021790555060808201518160040160006101000a81548173ffffffffffffffffffffffffffffffffffffffff021916908373ffffffffffffffffffffffffffffffffffffffff16021790555060a0820151816005015560c08201518160060160006101000a81548163ffffffff021916908363ffffffff16021790555060e08201518160060160046101000a81548163ffffffff021916908363ffffffff1602179055506101008201518160060160086101000a81548160ff0219169083151502179055506101208201518160060160096101000a81548173ffffffffffffffffffffffffffffffffffffffff021916908373ffffffffffffffffffffffffffffffffffffffff160217905550610140820151816007015561016082015181600801556101808201518160090160006101000a81548173ffffffffffffffffffffffffffffffffffffffff021916908373ffffffffffffffffffffffffffffffffffffffff1602179055506101a082015181600a0160006101000a81548173ffffffffffffffffffffffffffffffffffffffff021916908373ffffffffffffffffffffffffffffffffffffffff1602179055506101c082015181600b01556101e082015181600c015561020082015181600d015561022082015181600e015561024082015181600f0160006101000a81548163ffffffff021916908363ffffffff16021790555061026082015181600f0160046101000a81548163ffffffff021916908363ffffffff16021790555090505080600660008873ffffffffffffffffffffffffffffffffffffffff1673ffffffffffffffffffffffffffffffffffffffff16815260200190815260200160002060008d81526020019081526020016000206000878152602001908152602001600020600085815260200190815260200160002081905550828061204790615937565b935050600085146120c657876040015173ffffffffffffffffffffffffffffffffffffffff1663e3d595df8787846040518463ffffffff1660e01b81526004016120939392919061597f565b600060405180830381600087803b1580156120ad57600080fd5b505af11580156120c1573d6000803e3d6000fd5b505050505b80600760008a6040015173ffffffffffffffffffffffffffffffffffffffff1673ffffffffffffffffffffffffffffffffffffffff16815260200190815260200160002060008a60600151815260200190815260200160002060008781526020019081526020016000206000600560008c6040015173ffffffffffffffffffffffffffffffffffffffff1673ffffffffffffffffffffffffffffffffffffffff16815260200190815260200160002060008c6060015181526020019081526020016000206000898152602001908152602001600020548152602001908152602001600020819055506001600560008a6040015173ffffffffffffffffffffffffffffffffffffffff1673ffffffffffffffffffffffffffffffffffffffff16815260200190815260200160002060008a60600151815260200190815260200160002060008781526020019081526020016000205461222491906159b6565b600560008a6040015173ffffffffffffffffffffffffffffffffffffffff1673ffffffffffffffffffffffffffffffffffffffff16815260200190815260200160002060008a60600151815260200190815260200160002060008781526020019081526020016000208190555050808061229d90615937565b915050611a42565b5080600460008673ffffffffffffffffffffffffffffffffffffffff1673ffffffffffffffffffffffffffffffffffffffff16815260200190815260200160002060008b815260200190815260200160002081905550866020015160016007811061231357612312615086565b5b6020020151600360008673ffffffffffffffffffffffffffffffffffffffff1673ffffffffffffffffffffffffffffffffffffffff16815260200190815260200160002060008b815260200190815260200160002060008473ffffffffffffffffffffffffffffffffffffffff1673ffffffffffffffffffffffffffffffffffffffff1681526020019081526020016000206000886020015173ffffffffffffffffffffffffffffffffffffffff1673ffffffffffffffffffffffffffffffffffffffff16815260200190815260200160002081905550841561255657856040015173ffffffffffffffffffffffffffffffffffffffff1663e172007c846040518263ffffffff1660e01b815260040161242d9190614281565b600060405180830381865afa15801561244a573d6000803e3d6000fd5b505050506040513d6000823e3d601f19601f8201168201806040525081019061247391906155c9565b6020015173ffffffffffffffffffffffffffffffffffffffff168473ffffffffffffffffffffffffffffffffffffffff16146124e4576040517f08c379a00000000000000000000000000000000000000000000000000000000081526004016124db90615a36565b60405180910390fd5b856040015173ffffffffffffffffffffffffffffffffffffffff16636ea6b0ce85856040518363ffffffff1660e01b815260040161252392919061529a565b600060405180830381600087803b15801561253d57600080fd5b505af1158015612551573d6000803e3d6000fd5b505050505b50505050505050505050565b60008711156125fc573373ffffffffffffffffffffffffffffffffffffffff16600a60009054906101000a900473ffffffffffffffffffffffffffffffffffffffff1673ffffffffffffffffffffffffffffffffffffffff16146125fb576040517f08c379a00000000000000000000000000000000000000000000000000000000081526004016125f290614fb8565b60405180910390fd5b5b60003373ffffffffffffffffffffffffffffffffffffffff16600960009054906101000a900473ffffffffffffffffffffffffffffffffffffffff1673ffffffffffffffffffffffffffffffffffffffff1614612659573361265b565b885b905060003090506000600360008473ffffffffffffffffffffffffffffffffffffffff1673ffffffffffffffffffffffffffffffffffffffff16815260200190815260200160002060008b815260200190815260200160002060008a73ffffffffffffffffffffffffffffffffffffffff1673ffffffffffffffffffffffffffffffffffffffff16815260200190815260200160002060008973ffffffffffffffffffffffffffffffffffffffff1673ffffffffffffffffffffffffffffffffffffffff168152602001908152602001600020549050600073ffffffffffffffffffffffffffffffffffffffff168873ffffffffffffffffffffffffffffffffffffffff161461276e576000871461280f565b8360026003811061278257612781615086565b5b602002015173__$dd8f70da0dc5250aadfe160dc97f00f11f$__639d036e7160405180602001604052808b8152506040518263ffffffff1660e01b81526004016127cc91906157bb565b602060405180830381865af41580156127e9573d6000803e3d6000fd5b505050506040513d601f19601f8201168201806040525081019061280d91906152d8565b145b61284e576040517f08c379a000000000000000000000000000000000000000000000000000000000815260040161284590615aa2565b60405180910390fd5b60008114612876578360006003811061286a57612869615086565b5b602002015181146128aa565b8360016003811061288a57612889615086565b5b6020020151846002600381106128a3576128a2615086565b5b6020020151145b6128e9576040517f08c379a00000000000000000000000000000000000000000000000000000000081526004016128e090615b0e565b60405180910390fd5b8873ffffffffffffffffffffffffffffffffffffffff1663dd62ed3e84846040518363ffffffff1660e01b8152600401612924929190615b2e565b602060405180830381865afa158015612941573d6000803e3d6000fd5b505050506040513d601f19601f8201168201806040525081019061296591906152d8565b8711156129a7576040517f08c379a000000000000000000000000000000000000000000000000000000000815260040161299e90615ba3565b60405180910390fd5b600160009054906101000a900473ffffffffffffffffffffffffffffffffffffffff1673ffffffffffffffffffffffffffffffffffffffff16633bd3ada88787876040518463ffffffff1660e01b8152600401612a0693929190614f29565b60006040518083038186803b158015612a1e57600080fd5b505afa158015612a32573d6000803e3d6000fd5b50505050600073ffffffffffffffffffffffffffffffffffffffff168873ffffffffffffffffffffffffffffffffffffffff1603612af0578873ffffffffffffffffffffffffffffffffffffffff166323b872dd84848a6040518463ffffffff1660e01b8152600401612aa793929190615bc3565b6020604051808303816000875af1158015612ac6573d6000803e3d6000fd5b505050506040513d601f19601f82011682018060405250810190612aea9190615c0f565b50612bce565b600960009054906101000a900473ffffffffffffffffffffffffffffffffffffffff1673ffffffffffffffffffffffffffffffffffffffff16634f5fc7d3848b6040518363ffffffff1660e01b8152600401612b4d929190615b2e565b602060405180830381865afa158015612b6a573d6000803e3d6000fd5b505050506040513d601f19601f82011682018060405250810190612b8e9190615c0f565b612bcd576040517f08c379a0000000000000000000000000000000000000000000000000000000008152600401612bc490615c88565b60405180910390fd5b5b83600160038110612be257612be1615086565b5b6020020151600360008573ffffffffffffffffffffffffffffffffffffffff1673ffffffffffffffffffffffffffffffffffffffff16815260200190815260200160002060008c815260200190815260200160002060008b73ffffffffffffffffffffffffffffffffffffffff1673ffffffffffffffffffffffffffffffffffffffff16815260200190815260200160002060008a73ffffffffffffffffffffffffffffffffffffffff1673ffffffffffffffffffffffffffffffffffffffff168152602001908152602001600020819055505050505050505050505050565b612cca613e29565b6008600083815260200190815260200160002060405180610280016040529081600082015481526020016001820160009054906101000a900473ffffffffffffffffffffffffffffffffffffffff1673ffffffffffffffffffffffffffffffffffffffff1673ffffffffffffffffffffffffffffffffffffffff168152602001600282015481526020016003820160009054906101000a900473ffffffffffffffffffffffffffffffffffffffff1673ffffffffffffffffffffffffffffffffffffffff1673ffffffffffffffffffffffffffffffffffffffff1681526020016004820160009054906101000a900473ffffffffffffffffffffffffffffffffffffffff1673ffffffffffffffffffffffffffffffffffffffff1673ffffffffffffffffffffffffffffffffffffffff168152602001600582015481526020016006820160009054906101000a900463ffffffff1663ffffffff1663ffffffff1681526020016006820160049054906101000a900463ffffffff1663ffffffff1663ffffffff1681526020016006820160089054906101000a900460ff161515151581526020016006820160099054906101000a900473ffffffffffffffffffffffffffffffffffffffff1673ffffffffffffffffffffffffffffffffffffffff1673ffffffffffffffffffffffffffffffffffffffff16815260200160078201548152602001600882015481526020016009820160009054906101000a900473ffffffffffffffffffffffffffffffffffffffff1673ffffffffffffffffffffffffffffffffffffffff1673ffffffffffffffffffffffffffffffffffffffff168152602001600a820160009054906101000a900473ffffffffffffffffffffffffffffffffffffffff1673ffffffffffffffffffffffffffffffffffffffff1673ffffffffffffffffffffffffffffffffffffffff168152602001600b8201548152602001600c8201548152602001600d8201548152602001600e8201548152602001600f820160009054906101000a900463ffffffff1663ffffffff1663ffffffff168152602001600f820160049054906101000a900463ffffffff1663ffffffff1663ffffffff16815250509050919050565b600087111561309b573373ffffffffffffffffffffffffffffffffffffffff16600a60009054906101000a900473ffffffffffffffffffffffffffffffffffffffff1673ffffffffffffffffffffffffffffffffffffffff161461309a576040517f08c379a000000000000000000000000000000000000000000000000000000000815260040161309190614fb8565b60405180910390fd5b5b60003373ffffffffffffffffffffffffffffffffffffffff16600960009054906101000a900473ffffffffffffffffffffffffffffffffffffffff1673ffffffffffffffffffffffffffffffffffffffff16146130f857336130fa565b885b90506000309050600460008373ffffffffffffffffffffffffffffffffffffffff1673ffffffffffffffffffffffffffffffffffffffff16815260200190815260200160002060008a8152602001908152602001600020548360036007811061316657613165615086565b5b60200201818152505060008054906101000a900473ffffffffffffffffffffffffffffffffffffffff1673ffffffffffffffffffffffffffffffffffffffff1663ad5654c68686866040518463ffffffff1660e01b81526004016131cc93929190615d2c565b60006040518083038186803b1580156131e457600080fd5b505afa1580156131f8573d6000803e3d6000fd5b50505050826002600781106132105761320f615086565b5b602002015173__$dd8f70da0dc5250aadfe160dc97f00f11f$__639d036e7160405180602001604052808a8152506040518263ffffffff1660e01b815260040161325a91906157bb565b602060405180830381865af4158015613277573d6000803e3d6000fd5b505050506040513d601f19601f8201168201806040525081019061329b91906152d8565b146132db576040517f08c379a00000000000000000000000000000000000000000000000000000000081526004016132d290615dab565b60405180910390fd5b600460008373ffffffffffffffffffffffffffffffffffffffff1673ffffffffffffffffffffffffffffffffffffffff16815260200190815260200160002060008a815260200190815260200160002054836003600781106133405761333f615086565b5b602002015114613385576040517f08c379a000000000000000000000000000000000000000000000000000000000815260040161337c90615e17565b60405180910390fd5b8260006007811061339957613398615086565b5b6020020151600360008473ffffffffffffffffffffffffffffffffffffffff1673ffffffffffffffffffffffffffffffffffffffff16815260200190815260200160002060008b815260200190815260200160002060008a73ffffffffffffffffffffffffffffffffffffffff1673ffffffffffffffffffffffffffffffffffffffff16815260200190815260200160002060008973ffffffffffffffffffffffffffffffffffffffff1673ffffffffffffffffffffffffffffffffffffffff16815260200190815260200160002054146134a9576040517f08c379a00000000000000000000000000000000000000000000000000000000081526004016134a090615e83565b60405180910390fd5b600073ffffffffffffffffffffffffffffffffffffffff168273ffffffffffffffffffffffffffffffffffffffff16141580156135135750600073ffffffffffffffffffffffffffffffffffffffff168873ffffffffffffffffffffffffffffffffffffffff1614155b613552576040517f08c379a000000000000000000000000000000000000000000000000000000000815260040161354990615eef565b60405180910390fd5b8560001080156135db57508773ffffffffffffffffffffffffffffffffffffffff166370a08231826040518263ffffffff1660e01b81526004016135969190615f0f565b602060405180830381865afa1580156135b3573d6000803e3d6000fd5b505050506040513d601f19601f820116820180604052508101906135d791906152d8565b8611155b61361a576040517f08c379a000000000000000000000000000000000000000000000000000000000815260040161361190615f9c565b60405180910390fd5b8260016007811061362e5761362d615086565b5b6020020151600360008473ffffffffffffffffffffffffffffffffffffffff1673ffffffffffffffffffffffffffffffffffffffff16815260200190815260200160002060008b815260200190815260200160002060008a73ffffffffffffffffffffffffffffffffffffffff1673ffffffffffffffffffffffffffffffffffffffff16815260200190815260200160002060008973ffffffffffffffffffffffffffffffffffffffff1673ffffffffffffffffffffffffffffffffffffffff16815260200190815260200160002081905550600073ffffffffffffffffffffffffffffffffffffffff168773ffffffffffffffffffffffffffffffffffffffff16036137b9578773ffffffffffffffffffffffffffffffffffffffff1663a9059cbb83886040518363ffffffff1660e01b815260040161377092919061529a565b6020604051808303816000875af115801561378f573d6000803e3d6000fd5b505050506040513d601f19601f820116820180604052508101906137b39190615c0f565b50613897565b600960009054906101000a900473ffffffffffffffffffffffffffffffffffffffff1673ffffffffffffffffffffffffffffffffffffffff16634f5fc7d3838a6040518363ffffffff1660e01b8152600401613816929190615b2e565b602060405180830381865afa158015613833573d6000803e3d6000fd5b505050506040513d601f19601f820116820180604052508101906138579190615c0f565b613896576040517f08c379a000000000000000000000000000000000000000000000000000000000815260040161388d90615c88565b60405180910390fd5b5b50505050505050505050565b606060008261391357600560008773ffffffffffffffffffffffffffffffffffffffff1673ffffffffffffffffffffffffffffffffffffffff1681526020019081526020016000206000868152602001908152602001600020600085815260200190815260200160002054613965565b600460008773ffffffffffffffffffffffffffffffffffffffff1673ffffffffffffffffffffffffffffffffffffffff1681526020019081526020016000206000868152602001908152602001600020545b905060008167ffffffffffffffff8111156139835761398261407e565b5b6040519080825280602002602001820160405280156139bc57816020015b6139a9613e29565b8152602001906001900390816139a15790505b50905060005b82811015613e1b576008600086613a4b57600760008b73ffffffffffffffffffffffffffffffffffffffff1673ffffffffffffffffffffffffffffffffffffffff16815260200190815260200160002060008a81526020019081526020016000206000898152602001908152602001600020600084815260200190815260200160002054613abf565b600660008b73ffffffffffffffffffffffffffffffffffffffff1673ffffffffffffffffffffffffffffffffffffffff16815260200190815260200160002060008a815260200190815260200160002060008981526020019081526020016000206000848152602001908152602001600020545b815260200190815260200160002060405180610280016040529081600082015481526020016001820160009054906101000a900473ffffffffffffffffffffffffffffffffffffffff1673ffffffffffffffffffffffffffffffffffffffff1673ffffffffffffffffffffffffffffffffffffffff168152602001600282015481526020016003820160009054906101000a900473ffffffffffffffffffffffffffffffffffffffff1673ffffffffffffffffffffffffffffffffffffffff1673ffffffffffffffffffffffffffffffffffffffff1681526020016004820160009054906101000a900473ffffffffffffffffffffffffffffffffffffffff1673ffffffffffffffffffffffffffffffffffffffff1673ffffffffffffffffffffffffffffffffffffffff168152602001600582015481526020016006820160009054906101000a900463ffffffff1663ffffffff1663ffffffff1681526020016006820160049054906101000a900463ffffffff1663ffffffff1663ffffffff1681526020016006820160089054906101000a900460ff161515151581526020016006820160099054906101000a900473ffffffffffffffffffffffffffffffffffffffff1673ffffffffffffffffffffffffffffffffffffffff1673ffffffffffffffffffffffffffffffffffffffff16815260200160078201548152602001600882015481526020016009820160009054906101000a900473ffffffffffffffffffffffffffffffffffffffff1673ffffffffffffffffffffffffffffffffffffffff1673ffffffffffffffffffffffffffffffffffffffff168152602001600a820160009054906101000a900473ffffffffffffffffffffffffffffffffffffffff1673ffffffffffffffffffffffffffffffffffffffff1673ffffffffffffffffffffffffffffffffffffffff168152602001600b8201548152602001600c8201548152602001600d8201548152602001600e8201548152602001600f820160009054906101000a900463ffffffff1663ffffffff1663ffffffff168152602001600f820160049054906101000a900463ffffffff1663ffffffff1663ffffffff1681525050828281518110613dfd57613dfc615086565b5b60200260200101819052508080613e1390615937565b9150506139c2565b508092505050949350505050565b60405180610280016040528060008152602001600073ffffffffffffffffffffffffffffffffffffffff16815260200160008152602001600073ffffffffffffffffffffffffffffffffffffffff168152602001600073ffffffffffffffffffffffffffffffffffffffff16815260200160008152602001600063ffffffff168152602001600063ffffffff168152602001600015158152602001600073ffffffffffffffffffffffffffffffffffffffff1681526020016000815260200160008152602001600073ffffffffffffffffffffffffffffffffffffffff168152602001600073ffffffffffffffffffffffffffffffffffffffff16815260200160008152602001600081526020016000815260200160008152602001600063ffffffff168152602001600063ffffffff1681525090565b6000604051905090565b600080fd5b600080fd5b600073ffffffffffffffffffffffffffffffffffffffff82169050919050565b6000613f9f82613f74565b9050919050565b613faf81613f94565b8114613fba57600080fd5b50565b600081359050613fcc81613fa6565b92915050565b6000819050919050565b613fe581613fd2565b8114613ff057600080fd5b50565b60008135905061400281613fdc565b92915050565b600080fd5b600080fd5b600080fd5b60008083601f84011261402d5761402c614008565b5b8235905067ffffffffffffffff81111561404a5761404961400d565b5b60208301915083600182028301111561406657614065614012565b5b9250929050565b6000601f19601f8301169050919050565b7f4e487b7100000000000000000000000000000000000000000000000000000000600052604160045260246000fd5b6140b68261406d565b810181811067ffffffffffffffff821117156140d5576140d461407e565b5b80604052505050565b60006140e8613f60565b90506140f482826140ad565b919050565b600067ffffffffffffffff8211156141145761411361407e565b5b602082029050919050565b600061413261412d846140f9565b6140de565b9050806020840283018581111561414c5761414b614012565b5b835b8181101561417557806141618882613ff3565b84526020840193505060208101905061414e565b5050509392505050565b600082601f83011261419457614193614008565b5b60036141a184828561411f565b91505092915050565b600080600080600060c086880312156141c6576141c5613f6a565b5b60006141d488828901613fbd565b95505060206141e588828901613ff3565b945050604086013567ffffffffffffffff81111561420657614205613f6f565b5b61421288828901614017565b935093505060606142258882890161417f565b9150509295509295909350565b6000806040838503121561424957614248613f6a565b5b600061425785828601613fbd565b925050602061426885828601613ff3565b9150509250929050565b61427b81613fd2565b82525050565b60006020820190506142966000830184614272565b92915050565b600067ffffffffffffffff8211156142b7576142b661407e565b5b602082029050602081019050919050565b600080fd5b600080fd5b600063ffffffff82169050919050565b6142eb816142d2565b81146142f657600080fd5b50565b600081359050614308816142e2565b92915050565b60006101008284031215614325576143246142c8565b5b6143306101006140de565b9050600061434084828501613fbd565b600083015250602061435484828501613fbd565b602083015250604061436884828501613ff3565b604083015250606061437c84828501613ff3565b606083015250608061439084828501613ff3565b60808301525060a06143a484828501613ff3565b60a08301525060c06143b8848285016142f9565b60c08301525060e06143cc848285016142f9565b60e08301525092915050565b60006143eb6143e68461429c565b6140de565b905080838252602082019050610100840283018581111561440f5761440e614012565b5b835b818110156144395780614424888261430e565b84526020840193505061010081019050614411565b5050509392505050565b600082601f83011261445857614457614008565b5b81356144688482602086016143d8565b91505092915050565b600080fd5b600067ffffffffffffffff8211156144915761449061407e565b5b61449a8261406d565b9050602081019050919050565b82818337600083830152505050565b60006144c96144c484614476565b6140de565b9050828152602081018484840111156144e5576144e4614471565b5b6144f08482856144a7565b509392505050565b600082601f83011261450d5761450c614008565b5b813561451d8482602086016144b6565b91505092915050565b600067ffffffffffffffff8211156145415761454061407e565b5b602082029050919050565b600061455f61455a84614526565b6140de565b9050806020840283018581111561457957614578614012565b5b835b818110156145a2578061458e8882613ff3565b84526020840193505060208101905061457b565b5050509392505050565b600082601f8301126145c1576145c0614008565b5b60076145ce84828561454c565b91505092915050565b600061010082840312156145ee576145ed6142c8565b5b6145f860406140de565b9050600082013567ffffffffffffffff811115614618576146176142cd565b5b614624848285016144f8565b6000830152506020614638848285016145ac565b60208301525092915050565b600060a0828403121561465a576146596142c8565b5b61466460a06140de565b9050600061467484828501613fbd565b600083015250602061468884828501613fbd565b602083015250604061469c84828501613fbd565b60408301525060606146b084828501613ff3565b60608301525060806146c484828501613ff3565b60808301525092915050565b60008115159050919050565b6146e5816146d0565b81146146f057600080fd5b50565b600081359050614702816146dc565b92915050565b600080600080600080610140878903121561472657614725613f6a565b5b600061473489828a01613fbd565b965050602061474589828a01613ff3565b955050604087013567ffffffffffffffff81111561476657614765613f6f565b5b61477289828a01614443565b945050606087013567ffffffffffffffff81111561479357614792613f6f565b5b61479f89828a016145d7565b93505060806147b089828a01614644565b9250506101206147c289828a016146f3565b9150509295509295509295565b600080600080600080600080610120898b0312156147f0576147ef613f6a565b5b60006147fe8b828c01613fbd565b985050602061480f8b828c01613ff3565b97505060406148208b828c01613fbd565b96505060606148318b828c01613fbd565b95505060806148428b828c01613ff3565b94505060a089013567ffffffffffffffff81111561486357614862613f6f565b5b61486f8b828c01614017565b935093505060c06148828b828c0161417f565b9150509295985092959890939650565b6000602082840312156148a8576148a7613f6a565b5b60006148b684828501613ff3565b91505092915050565b6148c881613fd2565b82525050565b6148d781613f94565b82525050565b6148e6816142d2565b82525050565b6148f5816146d0565b82525050565b6102808201600082015161491260008501826148bf565b50602082015161492560208501826148ce565b50604082015161493860408501826148bf565b50606082015161494b60608501826148ce565b50608082015161495e60808501826148ce565b5060a082015161497160a08501826148bf565b5060c082015161498460c08501826148dd565b5060e082015161499760e08501826148dd565b506101008201516149ac6101008501826148ec565b506101208201516149c16101208501826148ce565b506101408201516149d66101408501826148bf565b506101608201516149eb6101608501826148bf565b50610180820151614a006101808501826148ce565b506101a0820151614a156101a08501826148ce565b506101c0820151614a2a6101c08501826148bf565b506101e0820151614a3f6101e08501826148bf565b50610200820151614a546102008501826148bf565b50610220820151614a696102208501826148bf565b50610240820151614a7e6102408501826148dd565b50610260820151614a936102608501826148dd565b50505050565b600061028082019050614aaf60008301846148fb565b92915050565b6000806000806000806000806101a0898b031215614ad657614ad5613f6a565b5b6000614ae48b828c01613fbd565b9850506020614af58b828c01613ff3565b9750506040614b068b828c01613fbd565b9650506060614b178b828c01613fbd565b9550506080614b288b828c01613ff3565b94505060a089013567ffffffffffffffff811115614b4957614b48613f6f565b5b614b558b828c01614017565b935093505060c0614b688b828c016145ac565b9150509295985092959890939650565b60008060008060808587031215614b9257614b91613f6a565b5b6000614ba087828801613fbd565b9450506020614bb187828801613ff3565b9350506040614bc287828801613ff3565b9250506060614bd3878288016146f3565b91505092959194509250565b600081519050919050565b600082825260208201905092915050565b6000819050602082019050919050565b61028082016000820151614c2260008501826148bf565b506020820151614c3560208501826148ce565b506040820151614c4860408501826148bf565b506060820151614c5b60608501826148ce565b506080820151614c6e60808501826148ce565b5060a0820151614c8160a08501826148bf565b5060c0820151614c9460c08501826148dd565b5060e0820151614ca760e08501826148dd565b50610100820151614cbc6101008501826148ec565b50610120820151614cd16101208501826148ce565b50610140820151614ce66101408501826148bf565b50610160820151614cfb6101608501826148bf565b50610180820151614d106101808501826148ce565b506101a0820151614d256101a08501826148ce565b506101c0820151614d3a6101c08501826148bf565b506101e0820151614d4f6101e08501826148bf565b50610200820151614d646102008501826148bf565b50610220820151614d796102208501826148bf565b50610240820151614d8e6102408501826148dd565b50610260820151614da36102608501826148dd565b50505050565b6000614db58383614c0b565b6102808301905092915050565b6000602082019050919050565b6000614dda82614bdf565b614de48185614bea565b9350614def83614bfb565b8060005b83811015614e20578151614e078882614da9565b9750614e1283614dc2565b925050600181019050614df3565b5085935050505092915050565b60006020820190508181036000830152614e478184614dcf565b905092915050565b600082825260208201905092915050565b6000614e6c8385614e4f565b9350614e798385846144a7565b614e828361406d565b840190509392505050565b600060039050919050565b600081905092915050565b6000819050919050565b6000614eb983836148bf565b60208301905092915050565b6000602082019050919050565b614edb81614e8d565b614ee58184614e98565b9250614ef082614ea3565b8060005b83811015614f21578151614f088782614ead565b9650614f1383614ec5565b925050600181019050614ef4565b505050505050565b60006080820190508181036000830152614f44818587614e60565b9050614f536020830184614ed2565b949350505050565b600082825260208201905092915050565b7f6f6e6c792067726f75702063616e2063616c6c00000000000000000000000000600082015250565b6000614fa2601383614f5b565b9150614fad82614f6c565b602082019050919050565b60006020820190508181036000830152614fd181614f95565b9050919050565b600081519050614fe781613fa6565b92915050565b60006020828403121561500357615002613f6a565b5b600061501184828501614fd8565b91505092915050565b7f5472616e736665722072657175657374206973206e6f74206163746976650000600082015250565b6000615050601e83614f5b565b915061505b8261501a565b602082019050919050565b6000602082019050818103600083015261507f81615043565b9050919050565b7f4e487b7100000000000000000000000000000000000000000000000000000000600052603260045260246000fd5b7f496e697469616c20616d6f756e747320646f6e2774206d617463680000000000600082015250565b60006150eb601b83614f5b565b91506150f6826150b5565b602082019050919050565b6000602082019050818103600083015261511a816150de565b9050919050565b7f416d6f756e747320646f6e2774206d6174636800000000000000000000000000600082015250565b6000615157601383614f5b565b915061516282615121565b602082019050919050565b600060208201905081810360008301526151868161514a565b9050919050565b7f596f7520617265206e6f7420746865206f776e65720000000000000000000000600082015250565b60006151c3601583614f5b565b91506151ce8261518d565b602082019050919050565b600060208201905081810360008301526151f2816151b6565b9050919050565b7f73656e64657220756e6c6f636b2074696d6520697320696e207468652066757460008201527f7572650000000000000000000000000000000000000000000000000000000000602082015250565b6000615255602383614f5b565b9150615260826151f9565b604082019050919050565b6000602082019050818103600083015261528481615248565b9050919050565b61529481613f94565b82525050565b60006040820190506152af600083018561528b565b6152bc6020830184614272565b9392505050565b6000815190506152d281613fdc565b92915050565b6000602082840312156152ee576152ed613f6a565b5b60006152fc848285016152c3565b91505092915050565b7f6f7261636c652073656e6465722076616c75657320646f6e2774206d61746368600082015250565b600061533b602083614f5b565b915061534682615305565b602082019050919050565b6000602082019050818103600083015261536a8161532e565b9050919050565b7f726563697069656e7420756e6c6f636b2074696d6520697320696e207468652060008201527f6675747572650000000000000000000000000000000000000000000000000000602082015250565b60006153cd602683614f5b565b91506153d882615371565b604082019050919050565b600060208201905081810360008301526153fc816153c0565b9050919050565b600067ffffffffffffffff82111561541e5761541d61407e565b5b6154278261406d565b9050602081019050919050565b60005b83811015615452578082015181840152602081019050615437565b60008484015250505050565b600061547161546c84615403565b6140de565b90508281526020810184848401111561548d5761548c614471565b5b615498848285615434565b509392505050565b600082601f8301126154b5576154b4614008565b5b81516154c584826020860161545e565b91505092915050565b6000815190506154dd816142e2565b92915050565b600061010082840312156154fa576154f96142c8565b5b6155056101006140de565b90506000615515848285016152c3565b600083015250602061552984828501614fd8565b602083015250604082015167ffffffffffffffff81111561554d5761554c6142cd565b5b615559848285016154a0565b604083015250606061556d848285016154ce565b6060830152506080615581848285016154ce565b60808301525060a0615595848285016154ce565b60a08301525060c06155a9848285016154ce565b60c08301525060e06155bd848285016154ce565b60e08301525092915050565b6000602082840312156155df576155de613f6a565b5b600082015167ffffffffffffffff8111156155fd576155fc613f6f565b5b615609848285016154e3565b91505092915050565b7f6465616c206d7573742062652061636365707465642066697273740000000000600082015250565b6000615648601b83614f5b565b915061565382615612565b602082019050919050565b600060208201905081810360008301526156778161563b565b9050919050565b7f6f7261636c6520726563697069656e742076616c75657320646f6e2774206d6160008201527f7463680000000000000000000000000000000000000000000000000000000000602082015250565b60006156da602383614f5b565b91506156e58261567e565b604082019050919050565b60006020820190508181036000830152615709816156cd565b9050919050565b600060019050919050565b600081905092915050565b6000819050919050565b61573981613fd2565b82525050565b600061574b8383615730565b60208301905092915050565b6000602082019050919050565b61576d81615710565b615777818461571b565b925061578282615726565b8060005b838110156157b357815161579a878261573f565b96506157a583615757565b925050600181019050615786565b505050505050565b60006020820190506157d06000830184615764565b92915050565b7f7365747570206572726f72000000000000000000000000000000000000000000600082015250565b600061580c600b83614f5b565b9150615817826157d6565b602082019050919050565b6000602082019050818103600083015261583b816157ff565b9050919050565b600060029050919050565b600081905092915050565b6000819050919050565b61586b81613fd2565b82525050565b600061587d8383615862565b60208301905092915050565b6000602082019050919050565b61589f81615842565b6158a9818461584d565b92506158b482615858565b8060005b838110156158e55781516158cc8782615871565b96506158d783615889565b9250506001810190506158b8565b505050505050565b60006158f98284615896565b60408201915081905092915050565b7f4e487b7100000000000000000000000000000000000000000000000000000000600052601160045260246000fd5b600061594282613fd2565b91507fffffffffffffffffffffffffffffffffffffffffffffffffffffffffffffffff820361597457615973615908565b5b600182019050919050565b6000606082019050615994600083018661528b565b6159a16020830185614272565b6159ae6040830184614272565b949350505050565b60006159c182613fd2565b91506159cc83613fd2565b92508282019050808211156159e4576159e3615908565b5b92915050565b7f6f6e6c7920746865206f776e65722063616e2061677265650000000000000000600082015250565b6000615a20601883614f5b565b9150615a2b826159ea565b602082019050919050565b60006020820190508181036000830152615a4f81615a13565b9050919050565b7f496e636f727265637420416d6f756e7400000000000000000000000000000000600082015250565b6000615a8c601083614f5b565b9150615a9782615a56565b602082019050919050565b60006020820190508181036000830152615abb81615a7f565b9050919050565b7f42616c616e63657320646f6e2774206d61746368000000000000000000000000600082015250565b6000615af8601483614f5b565b9150615b0382615ac2565b602082019050919050565b60006020820190508181036000830152615b2781615aeb565b9050919050565b6000604082019050615b43600083018561528b565b615b50602083018461528b565b9392505050565b7f4e6f7420456e6f75676820416c6c6f77616e6365000000000000000000000000600082015250565b6000615b8d601483614f5b565b9150615b9882615b57565b602082019050919050565b60006020820190508181036000830152615bbc81615b80565b9050919050565b6000606082019050615bd8600083018661528b565b615be5602083018561528b565b615bf26040830184614272565b949350505050565b600081519050615c09816146dc565b92915050565b600060208284031215615c2557615c24613f6a565b5b6000615c3384828501615bfa565b91505092915050565b7f4f6e6c79205472656173757265722063616e206465706f736974000000000000600082015250565b6000615c72601a83614f5b565b9150615c7d82615c3c565b602082019050919050565b60006020820190508181036000830152615ca181615c65565b9050919050565b600060079050919050565b600081905092915050565b6000819050919050565b6000602082019050919050565b615cde81615ca8565b615ce88184615cb3565b9250615cf382615cbe565b8060005b83811015615d24578151615d0b8782614ead565b9650615d1683615cc8565b925050600181019050615cf7565b505050505050565b6000610100820190508181036000830152615d48818587614e60565b9050615d576020830184615cd5565b949350505050565b7f696e636f727265637420616d6f756e7400000000000000000000000000000000600082015250565b6000615d95601083614f5b565b9150615da082615d5f565b602082019050919050565b60006020820190508181036000830152615dc481615d88565b9050919050565b7f4e6f6e636520646f6e2774206d61746368000000000000000000000000000000600082015250565b6000615e01601183614f5b565b9150615e0c82615dcb565b602082019050919050565b60006020820190508181036000830152615e3081615df4565b9050919050565b7f696e697469616c2062616c616e63657320646f6e2774206d6174636800000000600082015250565b6000615e6d601c83614f5b565b9150615e7882615e37565b602082019050919050565b60006020820190508181036000830152615e9c81615e60565b9050919050565b7f70617965725f616464726573732063616e6e6f74206265206e756c6c00000000600082015250565b6000615ed9601c83614f5b565b9150615ee482615ea3565b602082019050919050565b60006020820190508181036000830152615f0881615ecc565b9050919050565b6000602082019050615f24600083018461528b565b92915050565b7f616d6f756e74206d757374206265206c657373207468616e206f72206571756160008201527f6c20746f20636f6e74726163742062616c616e63650000000000000000000000602082015250565b6000615f86603583614f5b565b9150615f9182615f2a565b604082019050919050565b60006020820190508181036000830152615fb581615f79565b905091905056fea2646970667358221220d24d6e08130acb3a76a2908e7b2902b19c687f2cfa36ed6d9c963d45b471d15c64736f6c63430008120033",
  "linkReferences": {
    "contracts/utils/PoseidonT2.sol": {
      "PoseidonT2": [
        {
          "length": 20,
          "start": 6916
        },
        {
          "length": 20,
          "start": 10769
        },
        {
          "length": 20,
          "start": 13471
        }
      ]
    }
  },
  "deployedLinkReferences": {
    "contracts/utils/PoseidonT2.sol": {
      "PoseidonT2": [
        {
          "length": 20,
          "start": 6268
        },
        {
          "length": 20,
          "start": 10121
        },
        {
          "length": 20,
          "start": 12823
        }
      ]
    }
  }
}